:04220000022239324B
:01220B0032A0
:012213003298
:01221B003290
:012223003288
:01222B003280
:032233000222C0C4
:03229200022236EF
:0322360002231D63
:10229500AF83E582900404F0EFA3F010990280FB70
:1022A500900404E0FEA3E08E9990000122109802AC
:1022B50080FBAE997F008E828F8322C0E0C007C06D
:1022C50006C005C004C0D075D00053A8BFC2D8AFA2
:1022D500FA7E00ACEA7D00EC4206ED420774202E42
:1022E500FE744E3FFF8EEA8FFA43A840D0D0D0044B
:1022F500D005D006D007D0E0327E007F00BEE804CE
:10230500BF0301220EBE00F50F80F253A8BF75EE84
:102315000085F9FE43A8402275F90075E900C294CD
:1023250075D94375EA2075FA4E75DA4D75EC407529
:10233500FC8D75DC4275EEFF75FEFF75DE4C75A8EC
:0B234500C0D2DE1223101222FE80F82E
:06226800E478FFF6D8FD4A
:102246007900E94400601B7A00902354780675A053
:1022560004E493F2A308B8000205A0D9F4DAF275F3
:02226600A0FFD7
:10226E007800E84400600A790075A004E4F309D808
:10227E00FC7806E84400600C7901900400E4F0A3B9
:04228E00D8FCD9FAA5
:0D223900758107122350E5826003022236F2
:042350007582002270
:00000001FF
