:023FDF00A00F31
:03220000022206B1
:032265000222034F
:032203000228D5D9
:10226800AF83E5829013A0F0EFA3F09013A0E0FEF7
:10227800A3E0FF90FFFF75F000EE122CAAA3EF0277
:102288002CAAAFF0AE83E5829013A2F0EEA3F0EF94
:10229800A3F07E007F009013A2E0FBA3E0FCA3E084
:1022A800FD8B828C838DF0123D8B24D0FA9013D154
:1022B800EEF0EFA3F090000AC005C004C003C0020E
:1022C800122F73858208858309D002D003D004D0E9
:1022D800058A017A00E92508FEEA3509FF74022B10
:1022E800FBE43CFC9013A2EBF0ECA3F0EDA3F08B25
:1022F800828C838DF0123D8BF9A3123D8BFAB90DB8
:10230800A0BA009D9013A2EBF0ECA3F0EDA3F08E21
:10231800828F83227C007D007E007F00C3EC945076
:10232800ED94C3EE9400EF9400500F0CBC00090D1F
:10233800BD00050EBE00E50F80E222758920759864
:1023480050758DFDD28E22AF83E5829013A5F0EFF4
:10235800A3F010990280FB9013A5E0FEA3E08E99EC
:102368009000012210980280FBAE997F008E828F28
:10237800832290000112226812236CAE82AF8390F0
:1023880013A7EEF0EFA3F07E007F00EE2EFCEF33F4
:10239800FDEC24A7F582ED3413F583E0FCA3E0FD02
:1023A800C007C006C004C00574E1C0E0743FC0E0C7
:1023B800122CC5E58124FCF581D006D0070EBE009D
:1023C800010FEE2EFCEF33FDEC24A7FCED3413FDDA
:1023D800C007C006C005C00412236CAA82AB83D014
:1023E80004D005D006D0078C828D83EAF0EBA3F0E9
:1023F800BA0D98BB00959013A775F00022900001C4
:102408001222689014ACE0FF7E00C007C00674E496
:10241800C0E0743FC0E0122CC5E58124FCF58112B0
:10242800237A12228AAE82AF83C3EE941EEF940001
:10243800500302254BC3742C9E74019F5003022540
:102448004B9014ACE075F002A42451FC741435F0E0
:10245800FD8E828F83C007C006C005C004122E0AF5
:10246800AA82AB83D004D005D006D0078C828D8396
:10247800EAF0EBA3F09014ACE075F002A42451F557
:1024880082741435F0F583E0FCA3E04C701074FC02
:10249800C0E0743FC0E0122CC51581158122C00729
:1024A800C0067413C0E07440C0E07480C0E0122F0E
:1024B80093158115811581D006D0079014ACE0756D
:1024C800F002A4248DF582741435F0F583EEF0EF54
:1024D800A3F09014ACE075F002A4FCADF02465FA0A
:1024E800ED3414FBEC2451F582ED3414F583E0FC53
:1024F800A3E0FD8A828B83ECF0EDA3F09014ACE0AE
:1025080075F002A4FCADF02479FAED3414FBEC2448
:1025180051F582ED3414F583E0FCA3E0FDEE2CFECA
:10252800EF3DFF8A828B83EEF0EFA3F09014ACE0CE
:1025380024A2F582E43414F583E4F09014ACE0248A
:1025480001F0227426C0E07440C0E0122CC5158149
:10255800158122900001122268743AC0E07440C0CC
:10256800E0122CC51581158112236CAE82EE24D0A1
:10257800FFFE9014ACE0FDC3EE9D5054EF75F002E1
:10258800A42451F582741435F0F583E0FDA3E0FE30
:102598007C008D828E838CF0C007122B53D0078F5E
:1025A800067D00C007C006C005745FC0E07440C067
:1025B800E0122CC5E58124FCF581D007EF75F00207
:1025C800A42451F582741435F0F583E4F0A3F022C5
:1025D8007481C0E07440C0E0122CC51581158122B9
:1025E800E5829013BBF09000011222689013BBE0C3
:1025F800FF7D007E008F037C00C3ED9BEE9C4001B5
:1026080022ED2DFBEE33FCEB2451F582EC3414F56E
:1026180083E0F9A3E0FA497003022863C007C00702
:10262800C006C005C004C003749AC0E07440C0E08E
:10263800122CC515811581D003D004D005D006C051
:1026480006C005C004C003C005C00674A0C0E0747D
:1026580040C0E0122CC5E58124FCF581D003D004EC
:10266800D005D006D007EB2465F50AEC3414F50B39
:10267800850A82850B83E0F8A3E0FA7F00C007C0D3
:1026880006C005C004C003C000C002C00774ABC0C8
:10269800E07440C0E07480C0E0123369E58124FA38
:1026A800F581D003D004D005D006D007EB2479F506
:1026B80082EC3414F583E0FAA3E0F97F00C007C088
:1026C80006C005C004C003C002C001C00774BDC075
:1026D800E07440C0E07480C0E0123369E58124FAF8
:1026E800F581D003D004D005D006D007ED24A2F59B
:1026F8000CEE3414F50D850C82850D83E0FF7A000D
:10270800C007C006C005C004C003C007C00274CE1D
:10271800C0E07440C0E0122CC5E58124FCF581D0EE
:1027280003D004D005D006D007EB248DFBEC34147D
:10273800FC8B828C83E0FAA3E0FFC007C006C005CB
:10274800C004C003C002C00774E1C0E07440C0E028
:10275800122CC5E58124FCF581D003D004D005D026
:1027680006D0078B828C83E0FBA3E0FC850C828576
:102778000D83E0FF7A00EBC39FFBEC9AFCC007C017
:1027880006C005C003C00474EBC0E07440C0E0128A
:102798002CC5E58124FCF581D005D006D007D007EB
:1027A800ED4E6003022863850A82850B83E0FBA354
:1027B800E0FC850C0A850D0BE4F50CF50DC00785CA
:1027C8000A82850B83E0F87F00C3E50C98E50D9F2E
:1027D800D0074003022863E50C540F703BC0078BF9
:1027E800008C078F027F00C007C006C005C004C068
:1027F80003C000C002C00774FBC0E07440C0E074AE
:1028080080C0E0123369E58124FAF581D003D00451
:10281800D005D006D007D0078B828C83E0FAA3AB13
:1028280082AC838A017A00C007C006C005C004C014
:1028380003C001C0027400C0E07441C0E0122CC59E
:10284800E58124FCF581D003D004D005D006D0075B
:10285800050CE4B50C02050D0227C50DBD00010EDF
:102868000225FD7F009014ACE0FEC3EF9E505DEFA3
:1028780075F002A42451FD741435F0FE8D828E8308
:10288800E0FBA3E0FC7A008B828C838AF0C007C04F
:1028980006C005122B53D005D006D0078F037C0045
:1028A800C007C006C005C003C004745FC0E0744020
:1028B800C0E0122CC5E58124FCF581D005D006D0F6
:1028C800078D828E83E4F0A3F00F8099229013BDC8
:1028D800E4F0A3F09014AC04F09000011222689088
:1028E80013BCE4F07404C0E07441C0E0122CC515B8
:1028F80081158112237A12228AAE82AF83C3EE94A5
:1029080020EF940050030229F1C374809E740C9F39
:1029180050030229F1EE540F60030229E08E828FE2
:1029280083C007C006122E0AAC82AD83D006D0073A
:10293800901451ECF0EDA3F0EC4D701274FCC0E073
:10294800743FC0E0122CC515811581022A00900041
:1029580001C007C006122268D006D00790148DEE79
:10296800F0EFA3F07413C0E07440C0E07480C0E0DE
:10297800122F93158115811581901451E0FEA3E063
:10298800FF7D00C006C007C005741BC0E07441C0CD
:10299800E07480C0E0123369E58124FAF58190146F
:1029A80051E0FEA3E0FF901465EEF0EFA3F0901461
:1029B80051E0FEA3E0FF90148DE0FCA3E0FDEC2EB7
:1029C800FEED3FFF901479EEF0EFA3F09014A2E42F
:1029D800F09013BC04F080207426C0E07440C0E07E
:1029E800122CC515811581800F7426C0E07440C073
:1029F800E0122CC5158115819013BCE0FFBF0102C0
:102A080080030228E17429C0E07441C0E0122CC59B
:102A1800158115817433C0E07441C0E0122CC515CE
:102A28008115817457C0E07441C0E0122CC515812E
:102A38001581747BC0E07441C0E0122CC515811566
:102A48008174A1C0E07441C0E0122CC515811581C4
:102A580074C6C0E07441C0E0122CC515811581749C
:102A6800ECC0E07441C0E0122CC5158115817411C9
:102A7800C0E07442C0E0122CC51581158112236C88
:102A8800AE828E057F00C006C005C00774E1C0E0B5
:102A9800743FC0E0122CC5E58124FCF5819014A197
:102AA800E02401F0900002122268D006BE2B0280BA
:102AB80014BE2D028018BE3D028036BE3F0280172C
:102AC800BE40438038C006122405D0068072C00676
:102AD80012255BD00680699014ACE0F582C006121E
:102AE80025E8D0069014A2E4F09013BDF0A3F0807E
:102AF8004F758201C0061225E8D0068043C0061231
:102B0800286BD006803ABE61004035EE24854030FF
:102B1800901451E0FDA3E0FF9013BDE0FBA3E0FC9F
:102B2800EB2DF582EC3FF583EEF09013BD74012B8D
:102B3800F0E43CA3F09014A2E0FF0F9014A2EFF091
:0B2B4800BE40028003022A0D0228E1BB
:103FE1002563000A20456E74657220427566666518
:103FF100725F25642053697A653A000A0D4D656D3B
:104001006F7279206E6F7420616C6C6F636174657F
:1040110064000A0D4D656D6F727920616C6C6F6380
:1040210061746564000A0D4E6F7420446566696EA3
:104031006564205370616365000A20456E74657282
:1040410020427566666572206E756D6265722074B8
:104051006F2062652064656C657465643A000A0DC1
:104061004275666665725F25642053756363657387
:104071007366756C6C792052656D6F7665642E0080
:104081000A0D496E76616C696420427566666572D7
:10409100204E756D6265722E000A0A0A0A0D0042F1
:1040A10075666665725F25643A000A0D4261736543
:1040B10020416464726573733A2570000A0D456E80
:1040C1006420416464726573733A2570000A0D536C
:1040D100746F726167652043686172733A25640089
:1040E1000A0D53697A653A2564000A0D46726565C1
:1040F1002053706163653A2564000A0D2570002024
:104101002563000A0D20456E74657220427566664E
:104111006572302053697A653A000A0D2041646462
:10412100726573733A2570000A0D204E6F746573C2
:104131003A000A0D20312E20612D7A2077696C6CAE
:104141002062652073746F72656420696E206275E8
:10415100666665722E000A0D20322E202B207769AB
:104161006C6C20616464206D6F7265206275666697
:1041710065722073706163652E000A0D20332E2055
:104181002D2077696C6C2072656D6F76652074687F
:1041910065206275666665722073706163652E00C5
:1041A1000A0D20342E203F2077696C6C2073686FD4
:1041B1007720746865204275666665722052657065
:1041C1006F72742E000A0D20352E203D2073686F0A
:1041D100772074686520636F6E74656E7420696EF4
:1041E100206275666665725F302E000A0D20362EDC
:1041F100204020456D70747920616C6C2062756679
:104201006665727320616E642052657365742E0059
:104211000A0D20456E7465722074686520436861DB
:084221007261637465723A00DA
:10423400000000000000000000000000000000007A
:10424400000000000000000000000000000000006A
:10425400000000000000000000000000000000005A
:10426400000000000000000000000000000000004A
:10427400000000000000000000000000000000003A
:0C4284000000000000000000000000012D
:102B5300AFF0AE83E5829013BFF0EEA3F0EFA3F0E6
:102B63009013BFE0FDA3E0FEA3E09013BFE0F5F0F8
:102B7300A3E045F07001229013C4E4F0A3F0901396
:102B8300C9E0FBA3E0FC9013C2EBF0ECA3F09013BD
:102B9300C674C9F07413A3F09013C2E0FBA3E0FC66
:102BA3004B60418B018C02C003C0048D008E04C3B3
:102BB300E998EA9CD004D003502A9013C4EBF0ECBC
:102BC300A3F074022BFBE43CFC9013C6EBF0ECA3E4
:102BD300F08B828C83E0FBA3E0FC9013C2EBF0EC60
:102BE300A3F080B49013C2E0FEA3E0FF9013BFE014
:102BF300FBA3E0FCA3E0EB24FEFBEC34FFFC74023C
:102C03002BFAE43CFD8A828D83EEF0EFA3F0901360
:102C1300C6E0F8A3E0F988828983EBF0ECA3F08B9C
:102C2300828C83E0F8A3E0F9EEB50033EFB5012F12
:102C330088828983A3A3E0FEA3E0FF8A828D83EECB
:102C4300F0EFA3F08B828C83E0FEA3E0FF8E828FF4
:102C530083E0FEA3E0FF8B828C83EEF0EFA3F09082
:102C630013C4E0FEA3E0FF4E603C8E828F83E0F846
:102C7300A3E0F9E8B5032FE9B5042B8B828C83E03D
:102C8300FBA3E0FC8E828F83EBF0ECA3F074022EA7
:102C9300FEE43FFF8A828D83E0FAA3E0FD8E828FFC
:072CA30083EAF0EDA3F0222B
:06223500E478FFF6D8FD7D
:10221300795CE94400601B7A01904234785175A0DF
:1022230014E493F2A308B8000205A0D9F4DAF27516
:02223300A0FF0A
:102CAA0020F71130F6138883A88220F509F6A88345
:102CBA007583002280FEF280F5F022C01C85811CFB
:102CCA00E51C24FDF8868318868218E493A324DB86
:102CDA00600C24256005122DB380F0022DCBD2D5CD
:102CEA00E493A3C083C082B4731486F01886831851
:102CFA00868218123D8B6054A3122DB380F5B463FB
:102D0A000818E618122DB38043B46417E630E74674
:102D1A0018E6F42401F608E6F43400F6742D122DB0
:102D2A00B38033B4782D868318868218E4122DA4D2
:102D3A00E583122DA3E583122DA4E582122DA3E5C6
:102D4A0082122DA430D5057430122DB3D082D083CF
:102D5A00022CD5B475F6E6FA18E6F9187C107D2728
:102D6A00122D8EFF7CE87D03122D8EC4F5837C64C0
:102D7A007D00122D8E4283E975F00A84C445F0F570
:102D8A0082EF80A97B000BC3E99CF9EA9DFA50F611
:102D9A001BE92CF9EA3DFAEB22C4540F700320D543
:102DAA001FC2D52490D43440D4C083C082C0F0F569
:102DBA0082E8C0E012234FD0E0F8D0F0D082D0836E
:102DCA0022D01C229013C97400F07404A3F0903F1F
:102DDA00DFE493FE740193FF1EBEFF011FEE240081
:102DEA00FEEF3404FF900400EEF0EFA3F09013C955
:102DFA00E0FEA3E0FF8E828F83A3A3E4F0A3F02278
:102E0A00AF83E5829013CBF0EFA3F09013C9E0F5FE
:102E1A00F0A3E045F07003122DCE9013CBE0FEA391
:102E2A00E0FF4E600E74022EFCE43FFDC3EC9EED03
:102E3A009F5004900000229013CB74022EF0E43FBE
:102E4A00A3F09013CBE0FEA3E0FFC3EE9404EF944B
:102E5A000050099013CB7404F0E4A3F09013C9E076
:102E6A00FEA3E0FF9013CDEEF0EFA3F09013CF7422
:102E7A00C9F07413A3F09013CDE0FEA3E0FF4E70E7
:102E8A0003022F6F8E828F83E0FCA3E0FD8C028DFC
:102E9A00038E008F01EAC398FAEB99FB8A008B0133
:102EAA009013CBE0F50EA3E0F50FC3E8950EE99574
:102EBA000F5003022F4C7404250EF8E4350FF9C3A2
:102ECA00EA98EB99404C8E028F03E50E2AFAE50F39
:102EDA003BFB8A828B83ECF0EDA3F074022AFCE4BC
:102EEA003BFD8E828F83A3A3E0F8A3E0F98C828D49
:102EFA0083E8F0E9A3F09013CFE0FCA3E0FD8C8215
:102F0A008D83EAF0EBA3F08E828F83EAF0EBA3F0D5
:102F1A00801C9013CFE0FCA3E0FD8E828F83A3A3D5
:102F2A00E0FAA3E0FB8C828D83EAF0EBA3F0901326
:102F3A00CDE0FCA3E0FD74022CFCE43DFD8C828D07
:102F4A00832274022EFEE43FFF9013CFEEF0EFA32C
:102F5A00F08E828F83E0FEA3E0FF9013CDEEF0EFB8
:102F6A00A3F0022E8090000022AA83AB828BF090FD
:102F7A0013D1E0A4F8A9F08AF0E0A429F98BF0A310
:092F8A00E0A429F58388822222CB
:10223B007800E84400600A790075A004E4F309D83B
:10224B00FC7851E84410600C7911900400E4F0A381
:0A225B00D8FCD9FAC200C201C20289
:102F9300C01CE581F51C24FBFFE51C24FBF886041B
:102FA3000886050886068C828D838EF0123D8BFB86
:102FB3007003023168BB2502800302314DC202C295
:102FC30001C200E51C24FBF874012CF6E43D08F66D
:102FD30008A606E51C24FBF8860408860508860671
:102FE3008C828D838EF0123D8BFABA68028017BAF9
:102FF3006C26D200E51C24FBF874012CF6E43D0892
:10300300F608A6068012D202E51C24FBF874012CF4
:10301300F6E43D08F608A606E51C24FBF88604083A
:1030230086050886068C828D838EF0123D8BFEBE4C
:1030330063028022BE64028013BE6F02801DBE73D2
:10304300028005BE78188009D201801275100A80AB
:103053000D7510108008751000800375100830017D
:103063004CEF24FDFEFF8E01871109871209871398
:103073001919AC11AD12AE138C828D838EF0123DF3
:103083008B700302315AAC11AD12AE138C828D8357
:103093008EF0123D8BFC0511E4B5110205127E0082
:1030A3008C828E83C00712234FD00780C530001750
:1030B300EF24FCFEFF8E0187140987150987160983
:1030C3008717191919802F300213EF14F9FF870698
:1030D3008E147515007516007517008019EF24FE00
:1030E300FEFF8E018705098706198D14EEF515334A
:1030F30095E0F516F517E510603F9013FC742FF07B
:10310300E4A3F07440A3F09013FFE510F08514825C
:103113008515838516F0E517C00712327ED007792F
:103123002FE7FE60327D008E828D83C007C00112BF
:10313300234FD001D0070980E8AE147D008E828D25
:1031430083C00712234FD007800D7E008B828E83AE
:10315300C00712234FD007E51C24FBF806B6000274
:103163000806022F9CD01C22AF82AE83ADF0FC90E8
:1031730013D7EFF0EEA3F0EDA3F0ECA3F09013D68A
:10318300E0FF7E209013D7E0FAA3E0FBA3E0FCA3CB
:10319300E0FD8F18751900751A00751B0090143B1C
:1031A300E518F0E519A3F0E51AA3F0E51BA3F08AEF
:1031B300828B838CF0EDC007C006123DA7AA82D094
:1031C30006D00774302AFD9013FBF08D04EC24C65F
:1031D30050079013FB74072DF01EEE24DBFCE43440
:1031E30013FD9013FBE08C828D83F09013D7E0FAEC
:1031F300A3E0FBA3E0FCA3E0FD901444E518F0E595
:1032030019A3F0E51AA3F0E51BA3F08A828B838C44
:10321300F0EDC007C006123EE7AA82AB83ACF0FD17
:10322300D006D0079013D7EAF0EBA3F0ECA3F0EDB0
:10323300A3F09013D7E0F5F0A3E042F0A3E042F04F
:10324300A3E045F060030231879013D3E0FCA3E0D1
:10325300FDA3E0FFEE24DBF582E43413F583E08C79
:10326300828D838FF0122CAAA3AC82AD830EBE2075
:10327300E38C828D838FF0E4022CAAAF82AE83AD00
:10328300F0FC901400EFF0EEA3F0EDA3F0ECA3F04C
:10329300901400E0FCA3E0FDA3E0FEA3E0FF30E711
:1032A3003F9013FFE0FBBB0A379013FCE0F9A3E068
:1032B300FAA3E0FB89828A838BF0742D122CAA90E7
:1032C30013FC740129F0E43AA3F0EBA3F09014008B
:1032D300C3E49CF0E49DA3F0E49EA3F0E49FA3F079
:1032E300901400E0FCA3E0FDA3E0FEA3E0FF901335
:1032F300FCE0F9A3E0FAA3E0FB9013FFE0F89013DE
:10330300D3E9F0EAA3F0EBA3F09013D6E8F08C82B4
:103313008D838EF0EF02316BC01C85811C7E008E85
:103323008312234FD01C22AFF0AE83E582901405A5
:10333300F0EEA3F0EFA3F0901405E0FDA3E0FEA3ED
:10334300E0FF901404E0FC901419E4F0A3F0A3F060
:1033530090141CEDF0EEA3F0EFA3F090141FECF02B
:1033630090331B023472C01CE581F51C24FBFF90D3
:103373001419E4F0A3F0A3F0E51C24FBF890141C4B
:10338300E6F008E6A3F008E6A3F090141FEFF09030
:10339300331B123472D01C22E582901415F0E0FF27
:1033A30090140BE0C0E0A3E0C0E0A3E0C0E0123360
:1033B300B6800D901409E0C0E0A3E0C0E08F822244
:1033C300158115811581901413E02401F0A3E034D5
:1033D30000F022E582901416F0E02430FF24C6505A
:1033E3000D74072FFF901408E060034307208F82BA
:1033F30002339BE582901417F0E0FFC4540FF5826B
:10340300C0071233D6D00753070F8F820233D6E596
:1034130082901418F090140EE0FCA3E0FDA3E0FEEC
:10342300A3E0FF901412E0FB752B20901418E0F931
:103433008B00E828F8EF23540148FBEC2CFCED3318
:10344300FDEE33FEEF33FFC3EB994007EBC399FB6C
:10345300430401E52B14FA8A2B70D590140EECF07B
:10346300EDA3F0EEA3F0EFA3F0901412EBF022AF74
:1034730083E582901420F0EFA3F0901420E0FEA3E4
:10348300E0FF901409EEF0EFA3F0901419E0FDA310
:10349300E0FEA3E0FF90140BEDF0EEA3F0EFA3F03A
:1034A300901413E4F0A3F090141CE0FDA3E0FEA33A
:1034B300E0FF8D828E838FF0123D8BFC90141C7481
:1034C300012DF0E43EA3F0EFA3F0EC7003023D679F
:1034D300BC25028003023D5F901422E4F090142384
:1034E300F0901424F0901425F0901426F0901427F3
:1034F300F0901428F0901429F090142BF090142CD1
:10350300F0A3F090142E14F0A3F090141CE0FDA38C
:10351300E0FEA3E0FF8D828E838FF0123D8BFBA331
:10352300AD82AE8390141CEDF0EEA3F0EFA3F09008
:103533001432EBF0BB25088B8212339B0234AABBF7
:103543003000500302360BEB24C6500302360B90B7
:10355300142EE0F521A3E0F52274FFB52163B52213
:1035630060C005C006C00790142CE0FAA3E0FF90EA
:1035730013D1EAF0EFA3F090000AC005C003122FA5
:1035830073AE82AF83D003D0058B027D00EA2EFE9B
:10359300ED3FFFEE24D0FEEF34FFFF90142CEEF04E
:1035A300EFA3F0D007D006D00590142CE0F5F0A3DC
:1035B300E045F060030235189014237401F00235DE
:1035C30018C005C006C0079013D1E521F0E522A37A
:1035D300F090000AC006C005C003122F73AA82AF81
:1035E30083D003D005D0067E00EB2AFAEE3FFFEA34
:1035F30024D0FAEF34FFFF90142EEAF0EFA3F0D0BB
:1036030007D006D005023518901432E0FBBB2E2FED
:10361300C005C006C00790142EE0FAA3E0FFBAFF6E
:1036230005BFFF028009D007D006D005023518D0A8
:1036330007D006D00590142EE4F0A3F0023518BB92
:1036430061004014EB2485400F90143274DF5BF06B
:103653009014087401F08005901408E4F09014327B
:10366300E0FBBB20028075BB2B028067BB2D028071
:1036730059BB4202806FBB4302807CBB44030239C7
:1036830002BB4603023928BB4803023518BB490372
:10369300023902BB4A03023518BB4C028050BB4FB0
:1036A30003023910BB5003023870BB53028077BB4F
:1036B3005403023518BB5503023918BB58030239AA
:1036C30020BB5A030235180239309014227401F0DA
:1036D3000235189014247401F002351890142574DF
:1036E30001F00235189014277401F0023518901474
:1036F300287401F0023518901427E0600E90141F0F
:10370300E014F9F0901432E7F0800F90141FE024D6
:10371300FEFFF08F01901432E7F0901432E0F5824F
:1037230012339B02393F90141FE024FDFFF08F01F9
:103733008705098706098707191990140EEDF0EE1E
:10374300A3F0EFA3F08D828E838FF0123D738582F9
:103753002185832290142EE0FAA3E0FDBAFF0DBD6C
:10376300FF0A90142EE521F0E522A3F0901422E045
:10377300704B90142CE0FAA3E0FDC3E5219AE522F7
:103783009D503A90142CEAC39521F0ED9522A3F0B5
:1037930090142CE0FAA3E0FD8A068D071ABAFF0104
:1037A3001DEE4F6010758220C005C00212339BD0FE
:1037B30002D00580E390142CEAF0EDA3F090142ED0
:1037C300E0F524A3E0F52590140EE0FAA3E0FDA3B1
:1037D300E0FF8A828D838FF0123D8BF523603CC31B
:1037E300E4952474808525F063F08095F0502C15C2
:1037F3002474FFB52402152585238212339B90146C
:103803000EE0FAA3E0FDA3E0FF0ABA00010D901455
:103813000EEAF0EDA3F0EFA3F080AC901422E07079
:103823000302393F90142CE0FEA3E0FFC3E5219E81
:10383300E5229F400302393F90142CEEC39521F0FB
:10384300EF9522A3F090142CE0FEA3E0FF8E028FED
:10385300051EBEFF011FEA4D700302393775822032
:10386300C007C00612339BD006D00780E090141F18
:10387300E024FDFDF08D0187260987270987281994
:103883001990140EE526F0E527A3F0E528A3F090A0
:103893001410E0FDBD800040089014327443F080A2
:1038A30020BD600040089014327450F08013BD4076
:1038B3000040089014327449F08006901432745812
:1038C300F0901432E0FDF582C00512339B75823A05
:1038D30012339B75823012339B75827812339BD0DF
:1038E30005BD4902800EBD5002800990140FE0F51A
:1038F300821233F690140EE0F5821233F6803D9077
:1039030014267401F090142B740AF0802F90142B5A
:103913007408F0802790142B740AF0801F90142BE6
:103923007410F080179014297401F0800F8B8212A9
:10393300339B800890142CEEF0EFA3F0901429E051
:10394300607190141FE024FCFFF08F018703098747
:103953000509870609870719191990140EEBF0ED6D
:10396300A3F0EEA3F0EFA3F090140E7429F07442C9
:10397300A3F07480A3F090140EE0F526A3E0F527DE
:10398300A3E0F52874012526FAE43527FBAF289038
:10399300140EEAF0EBA3F0EFA3F0852682852783CC
:1039A3008528F0123D8BFF70030234AA8F821233F5
:1039B3009B80C390142BE070030234AA901427E079
:1039C300604790141FE014F9F087077E007D007BA9
:1039D3000090140EEFF0EEA3F0EDA3F0EBA3F09044
:1039E3001426E06003023A8290140EE0FBA3E0A3E6
:1039F300E0A3E07D007E007F0090140EEBF0EDA3CA
:103A0300F0EEA3F0EFA3F08076901428E060289006
:103A1300141FE024FCFFF08F018703098705098742
:103A23000609870719191990140EEBF0EDA3F0EEB0
:103A3300A3F0EFA3F0804890141FE024FEFFF08F63
:103A430001870609870719EF3395E0FDFB90140EF4
:103A5300EEF0EFA3F0EDA3F0EBA3F0901426E070EB
:103A63001E90140EE0FBA3E0FDA3E0A3E07E007F25
:103A73000090140EEBF0EDA3F0EEA3F0EFA3F090A3
:103A83001426E0604190140EE0FBA3E0FDA3E0FEEA
:103A9300A3E0FF30E72B90140EE0FBA3E0FDA3E0CF
:103AA300FEA3E0FFC3E49BFBE49DFDE49EFEE49FD5
:103AB300FF90140EEBF0EDA3F0EEA3F0EFA3F08074
:103AC30005901426E4F090142A7401F090142BE06E
:103AD300F524752938752A14E4F521F5229014127A
:103AE300E4F085248212341290142AE07026901494
:103AF30012E0C4F526852982852A83E0FFE5264264
:103B030007852982852A83EFF0152974FFB52902D9
:103B1300152A800C901412E0FF852982852A83F0F0
:103B23000521E4B52102052290142AE0B40100E442
:103B330033F090140EE0FAA3E0FBA3E0FEA3E0FF52
:103B4300EA4B4E4F7097901439E529F0E52AA3F01C
:103B5300901430E521F0E522A3F090142CE0F5F069
:103B6300A3E045F0700990142C7401F0E4A3F090E5
:103B73001423E0FFE07047901422E070418521296F
:103B830085222A90142CE0FAA3E0FBC007AF290F8B
:103B93008F067F00C3EE9AEF9BD0075019758220E2
:103BA300C007C003C00212339BD002D003D0071A50
:103BB300BAFF011B80D590142CEAF0EBA3F090140C
:103BC30026E0602075822DC00712339BD007901426
:103BD3002CE024FFFDA3E034FFFE90142CEDF0EE67
:103BE300A3F08056901430E0F5F0A3E045F0604A6E
:103BF300901424E0602075822BC00712339BD007FA
:103C030090142CE024FFFDA3E034FFFE90142CED70
:103C1300F0EEA3F08024901425E0601E758220C08E
:103C23000712339BD00790142CE024FFFDA3E0344C
:103C3300FFFE90142CEDF0EEA3F0901422E07048F8
:103C4300901430E0F529A3E0F52A90142CE0FAA3B0
:103C5300E0FBC0078A068B071ABAFF011BC3E529DD
:103C63009EE52A9FD0075053EF60067D307E00808B
:103C7300047D207E008D82C007C003C00212339BE7
:103C8300D002D003D00780CA90142CE0FEA3E0FF3B
:103C9300901430E0F529A3E0F52AC3E5299EE52A2F
:103CA3009F500F90142CEEC39529F0EF952AA3F0A3
:103CB300801190142CE4F0A3F0800890142CEAF007
:103CC300EBA3F0901439E0FEA3E0FF901430E0F58D
:103CD30029A3E0F52AAA29AD2A152974FFB52902DB
:103CE300152AEA4D604590142AE0B40100E433F04C
:103CF30090142AE070140EBE00010F8E828F83E0B1
:103D0300C4540FFD901412F0800E8E828F83E0FD59
:103D130053050F901412EDF0901412E0F582C007D2
:103D2300C0061233D6D006D00780AA901422E070C2
:103D3300030234AA90142CE0FEA3E0FF8E038F0548
:103D43001EBEFF011FEB4D70030234AA758220C013
:103D530007C00612339BD006D00780E08C82123353
:103D63009B0234AA901413E0FEA3E08E82F5832213
:0B4229003C4E4F20464C4F41543E00DD
:103D7300AA82AB83123D8B6003A380F8C3E5829ACA
:083D8300F582E5839BF5832224
:0D22060075813A123FDBE58260030222037E
:103D8B0020F71430F6148883A88220F507E6A88361
:103D9B0075830022E280F7E49322E022AF82AE83A8
:103DAB00ADF0FC90143FEFF0EEA3F0EDA3F0ECA31D
:103DBB00F0901443E4F090143FE0FCA3E0FDA3E08B
:103DCB00FEA3E0FF7B0090143BE0F52BA3E0F52C6A
:103DDB00A3E0F52DA3E0F52E235401FA7074C00374
:103DEB00E52B252BF8E52C33F9E52D33FAE52E33AE
:103DFB00FB90143BE8F0E9A3F0EAA3F0EBA3F090FF
:103E0B00143BE0F52BA3E0F52CA3E0F52DA3E0F597
:103E1B002EC3EC952BED952CEE952DEF952ED00317
:103E2B005027E52EC313F52EE52D13F52DE52C1399
:103E3B00F52CE52B13F52B90143BF0E52CA3F0E5BB
:103E4B002DA3F0E52EA3F080090B901443EBF002A9
:103E5B003DD1901443E0FF90143FE0FBA3E0FCA3A3
:103E6B00E0FDA3E0FE90143BE0F52BA3E0F52CA3C3
:103E7B00E0F52DA3E0F52EC3EB952BEC952CED95F2
:103E8B002DEE952E401790143FEBC3952BF0EC9530
:103E9B002CA3F0ED952DA3F0EE952EA3F090143BF3
:103EAB00E0FBA3E0FCA3E0FDA3E0C313FEED13FDD9
:103EBB00EC13FCEB1390143BF0ECA3F0EDA3F0EE42
:103ECB00A3F08F061FEE708F90143FE0FCA3E0FD74
:103EDB00A3E0FEA3E08C828D838EF022AF82AE83B3
:103EEB00ADF0FC901448EFF0EEA3F0EDA3F0ECA3D3
:103EFB00F090144CE4F0A3F0A3F0A3F0901444E082
:103F0B00FCA3E0FDA3E0FEA3E0FF7B20C003901425
:103F1B0048E0F8A3E0F9A3E0FAA3E0FB90145023E8
:103F2B005401F0E828F8E933F9EA33FAEB33FB9064
:103F3B001448E8F0E9A3F0EAA3F0EBA3F090144CDB
:103F4B00E0F8A3E0F9A3E0FAA3E0FBE828F8E933F3
:103F5B00F9EA33FAEB33FB90144CE8F0E9A3F0EAFF
:103F6B00A3F0EBA3F0D003901450E0600890144C36
:103F7B00E043E001F090144CE0F52BA3E0F52CA30B
:103F8B00E0F52DA3E0F52EC3E52B9CE52C9DE52D4F
:103F9B009EE52E9F401F90144CE52BC39CF0E52C07
:103FAB009DA3F0E52D9EA3F0E52E9FA3F090144862
:103FBB00E043E001F01BEB6003023F17901448E075
:103FCB00FCA3E0FDA3E0FEA3E08C828D838EF022A8
:043FDB0075820022C9
:00000001FF
